:1000000009C019C018C017C016C015C014C013C04D
:1000100012C011C011241FBECFE9CDBF10E0A0E671
:10002000B0E0EEE9F0E002C005900D92AA36B1070B
:10003000D9F719D032C0E4CF27E030E090E0AC012E
:10004000022E02C0559547950A94E2F740FD02C082
:10005000C09801C0C09AC298C29A2150310978F75D
:10006000C198C19A08958FEF87BB18BA10E0C0E617
:10007000D0E08991810FE0DF2FE38DE093E0215004
:1000800080409040E1F700C0000020E0CA36D2076F
:0E00900081F71111EBCF10E8EACFF894FFCF03
:0A009E00C0F9A4B0999282F8809096
:00000001FF
