:1000000009C021C097C01FC01EC01DC01CC01BC09E
:1000100051C019C011241FBECFE9CDBF10E0A0E62A
:10002000B0E0E6E3F2E002C005900D92A037B10720
:10003000D9F720E0A0E7B0E001C01D92A637B207D3
:10004000E1F7AED0F6C0DCCFF89484B7877F84BFE9
:1000500081B5886181BD11BC109275001092740049
:1000600078940895F89484B7877F84BF81B58861B8
:1000700081BD85E481BD1092750010927400789462
:10008000089561118FEF27E030E090E0AC01022E7F
:1000900002C0559547950A94E2F740FD02C0C0980A
:1000A00001C0C09AC298C29A2150310978F7C1980C
:1000B000C19A08951F920F920FB60F9211242F9399
:1000C0003F934F935F936F937F938F939F93AF93E0
:1000D000BF93EF93FF939091700081E0911180E0C6
:1000E00080937000809174009091750001969093B8
:1000F00075008093740080917400909175000B9747
:1001000018F0A2DF109270008091720080688093D6
:100110007200FF91EF91BF91AF919F918F917F916D
:100120006F915F914F913F912F910F900FBE0F9064
:100130001F9018951F920F920FB60F9211242F93B4
:100140003F934F935F936F937F938F939F93AF935F
:10015000BF93EF93FF93F894B39910C0809172000E
:100160008160809372008091740090917500892B5A
:1001700009F478DF10927500109274007894FF9162
:10018000EF91BF91AF919F918F917F916F915F910F
:100190004F913F912F910F900FBE0F901F90189588
:1001A00061DF87EF87BB88E088BB3798AB9A78948C
:1001B0008BB780628BBFE0917300F0E0E05AFF4F95
:1001C00060E080815EDF8091720081FF06C08091D7
:1001D00072008860809372000FC08091720080FF6F
:1001E00010C0809173008F5F8093730080917300C3
:1001F000803110F0109273008091720080688093BB
:1002000072008091720087FFDECF60917000E091F4
:100210007300F0E0E05AFF4F908180917100890FE8
:1002200030DF809172008F7780937200109272009D
:06023000CACFF894FFCFD5
:10023600C0F9A4B0999282F880908883C6A1868E70
:00000001FF
